:020000040800F2
:10000000B85300209D01000889390008A92E000876
:1000100085390008E9020008E143000800000000FB
:10002000000000000000000000000000513B00083C
:10003000350300080000000091390008893C0008E1
:10004000B7010008B7010008B7010008B7010008B0
:10005000B7010008B7010008B7010008B7010008A0
:10006000B7010008B7010008B7010008B701000890
:10007000ED020008B7010008F9020008B701000806
:100080000503000811030008B7010008B7010008C4
:10009000B7010008B7010008B7010008B701000860
:1000A0006D3D0008B7010008B7010008B70100085E
:1000B000B7010008B7010008B7010008B701000840
:1000C000B7010008B7010008B7010008B701000830
:1000D000B7010008BD430008C9430008D543000824
:1000E000B7010008B7010008B7010008B701000810
:1000F000B7010008B7010008B7010008B701000800
:10010000B7010008B7010008B7010008B7010008EF
:10011000B7010008B7010008B70100088D3D0008CD
:10012000B7010008B70100081D030008B701000867
:10013000B7010008B7010008B7010008B7010008BF
:10014000B7010008B7010008B7010008B7010008AF
:10015000B7010008B701000829030008B70100082B
:10016000B7010008B7010008B7010008B70100088F
:10017000B7010008B7010008B7010008000000003F
:10018000B7010008B7010008DFF80CD000F09AF8BA
:1001900000480047094B0008B85300200648804734
:1001A00006480047FEE7FEE7FEE7FEE7FEE7FEE75C
:1001B000FEE7FEE7FEE7FEE7593D0008890100087B
:1001C0002DE9F05F0546002092469B46884606468C
:1001D000814640241BE0284641464746224600F01F
:1001E00060F853465A46C01A914110D3114618463A
:1001F000224600F047F82D1A67EB01084F462246C9
:100200000120002100F03EF817EB00094E41201EAE
:10021000A4F10104DFDC484631462A464346BDE8E6
:10022000F09F40EA01039B0703D009E008C9121FB1
:1002300008C0042AFAD203E011F8013B00F8013BA0
:10024000521EF9D27047D2B201E000F8012B491ECC
:10025000FBD270470022F6E710B513460A46044663
:100260001946FFF7F0FF204610BD30B504460020C8
:10027000034600E05B1C934203D2E05CCD5C401B74
:10028000F8D030BD202A04DB203A00FA02F1002029
:1002900070479140C2F1200320FA03F319439040C4
:1002A0007047202A04DB203A21FA02F0002170472F
:1002B00021FA02F3D040C2F12002914008431946CE
:1002C00070470000064C074D06E0E06840F001036F
:1002D00094E8070098471034AC42F6D3FFF758FF74
:1002E0003872000858720008FEE7000040F21C3027
:1002F000C2F2000000F02CB940F27C30C2F20000E3
:1003000000F026B940F25C20C2F2000000F020B9F3
:1003100040F2BC20C2F2000000F01AB940F29C107A
:10032000C2F2000000F014B940F2FC10C2F200006A
:1003300000F00EB970470000EFF3108072B600BFF6
:10034000FEE7000010B54379012B4FF002031DD0EA
:100350000371036802F0100ED3F800C0D1E9004128
:1003600040F6FE7202FA0EF221432CEA020201FA72
:100370000EF111431960C0211A6801FA0EF122EA48
:10038000010119600121002301714371184610BD5C
:10039000002804BF0120704710B50446007920B939
:1003A00000206071204600F007F802202071002034
:1003B00001212061217110BD80B586B047F2004156
:1003C0000068C4F20001002288420592049201D024
:1003D00006B080BD43F630000092C4F2020003690B
:1003E00043F000530361036903F000530093009B43
:1003F0000092036843F001030360006800F001000D
:1004000000900098302001900320CDE9020201F510
:10041000C63001A900F07EFA06B080BD81B04FF071
:10042000000CCDF800C0006800290090009810442E
:1004300014BF143008300090009900200B6001B008
:100440007047000010B54279012A4FF0020223D014
:100450000271026801F0100E4FF0010C14680CFAE2
:100460000EF323431360D2F800C049B13C230CF4CF
:10047000701103FA0EF399420AD1022105E000BF80
:100480000CF03C013C2903D1012153681943516010
:100490000121002201714271104610BD70B5866DB8
:1004A000044600F011FB94F83510022928D10546C6
:1004B0002068216C026822F016020260426922F074
:1004C0008002426109B9A16C19B1016821F00801EB
:1004D0000160016821F00101016000BF206800682F
:1004E000C00715D000F0F0FA401B0628F6D32020F4
:1004F0006065032084F83500002184F8341070BD55
:10050000802060650120002184F8341070BD00BF98
:10051000E06D3F2101FA00F0B060012084F8350061
:100520000020002184F8341070BD000090F83510D0
:10053000022909D1052180F835100068016821F0F1
:100540000101016000207047802141650120704752
:10055000F0B581B004460020009040F20800C2F2DD
:1005600000000268D4E9166048F2B5133768082124
:10057000C1F64E3381403942A2FB03250CD02268DC
:1005800013685B0708D5136823F004031360B16098
:10059000616D41F00101616501218140394208D05E
:1005A00022685269120604D5B160616D41F0020102
:1005B000616504218140394208D02268126892079F
:1005C00004D5B160616D41F0040161651021814085
:1005D000394217D020680268120713D5B16002684B
:1005E0000168520308D4C90508D4016821F0080144
:1005F0000160216C21B905E008033FD4216C09B1E9
:1006000020468847E16D202000FA01F23A4241D0AD
:1006100020680368DB063DD5B26094F83530026887
:10062000052B1BD122F016020260426922F08002E3
:100630004261226C0AB9A26C1AB1026822F0080267
:1006400002603F208840B060012084F83500216DB1
:100650000020002984F8340052D157E00168520389
:1006600010D4C90512D4016821F0100101600120E5
:1006700084F83500002084F8340007E0A16C0029DC
:10068000BED1BFE7080301D4616C00E0E16B09B1A2
:1006900020468847606DC8B3606DC0072ED0052026
:1006A00084F835002068A90A026822F0010202607D
:1006B000009A01328A4200921AD80268D20717D0F3
:1006C000009A01328A42009212D80268D2070FD0F3
:1006D000009A01328A4200920AD80268D20707D0F3
:1006E000009A01328A42009202D80268D207DFD112
:1006F000012084F83500002084F83400E16C29B131
:10070000204601B0BDE8F040084700BF01B0F0BD91
:100710002DE9F041044600F0D7F9ECB1054602207E
:1007200084F835000020216884F83400086820F03F
:100730000100086021680868C00711D000F0C4F902
:10074000401B0528F6D9032520230320636584F880
:100750003550BDE8F08100BF0120BDE8F08100BF49
:10076000086848F23F02CFF21002D4E9013500EAEE
:10077000020C04F10C0898E8C10143EA0C032B4376
:100780001843D4E9072E304338431043626A40EAE5
:100790000E00042A40EA08031CD1206BD4E90A2E7B
:1007A00040EA0E00184308604869BEF1000F20F0CF
:1007B000030040EA020040F0040C11D0B8F5005FDD
:1007C00036D0B8F1000F45D1022A46D0012A3BD0DD
:1007D00032B942E00B60486920F0070040EA020CA1
:1007E00001F0F8004AF6AB221038CAF6AA22A0FBA4
:1007F00002231A0947F24413C0F600039A5C40F240
:10080000FF335F284FF03F00C1F814C021EA030115
:1008100000FA02F088BF0431C4E916128860002390
:1008200001250020636584F83550BDE8F08100BFE4
:10083000032AD5D8012540230120DFE802F0030E6A
:10084000030500BF82E700BFAEF1C070B0FA80F0D0
:10085000400904E0032A04D3C2D1CEF3006000288B
:10086000BED0012540230120636584F83550BDE8E2
:10087000F081000070B590F834C0BCF1010F46D093
:100880004FF0010C80F834C0D0F858E090F835C033
:10089000BCF1010F38D14FF0020C80F835C04FF099
:1008A000000CC0F854C0D0F800C08468056CC06D5E
:1008B000DCF80060402C26F48026CCF80060CCF8F0
:1008C00004300B4604BF13460A463F2101FA00F0EC
:1008D000CCF80830CCF80C20CEF80800DCF800008A
:1008E00040F01600CCF800002DB1DCF8000040F01C
:1008F0000800CCF80000DCF8000040F00100CCF863
:100900000000002070BD00BF002180F834100220DC
:1009100070BD00002DE9F04F82B000F13E4241F67B
:10092000004502F1FF77C4F20205082243F6004EAB
:100930004FEAB726A84208BF0722C4F2010E072ECD
:1009400038BF4FEAB7220125002600274FF00008E4
:10095000009208E008F101080437B8F1100F06F121
:10096000020600F0A7800C6805FA08F914EA090FDE
:10097000F0D0D1F804B003220BF0030CACF1010469
:10098000B240012C6FEA020A10D88268CC6802EAF1
:100990000A02B440224382604268CBF3001422EA88
:1009A000090204FA08F42243426005E0BCF1030F97
:1009B00002D14FF0030C20E0C2688C6802EA0A0200
:1009C000B4402243BCF1020FC26016D16FF00302A3
:1009D00002EA58020244D2F820C007F01C050F2397
:1009E0000C69AB402CEA030304FA05F52B431362B0
:1009F000D1F804B001250BF0030C02680CFA06F3E1
:100A000002EA0A021A431BF4403F0260A2D000220D
:100A100043F644030192C4F202031A684FF6084CED
:100A200042F480421A601A68CFF6FF7C02F48042DA
:100A30000192019A28F00302724452F80C3007F038
:100A40000C050F24AC40A343009C04FA05F52B438E
:100A500042F80C30DEF808204B6842EA090543F6FC
:100A60000C4CDC0258BF22EA0905CEF80850C4F24B
:100A7000010CDCF800209C0242EA090558BF22EA7A
:100A80000905CCF80050DEF804209C0342EA090571
:100A900058BF22EA0905CEF80450DEF80020DB0337
:100AA00042EA090558BF22EA0905CEF8005001259F
:100AB00050E700BF02B0BDE8F08F0000002A08BF79
:100AC000090481617047000044F6B800C2F20000DA
:100AD0000068704740F2000044F6B801C2F200001E
:100AE000C2F2000100780A681044086070470000F4
:100AF00080B543F60040C4F20200016841F4007181
:100B00000160016841F480610160016841F4807115
:100B10000160032000F0C8F80F2000F005F800F095
:100B200061F8002080BD000070B586B0002543F656
:100B300040010195C4F202010A68044642F0200215
:100B40000A60096801A801F0200101910199694634
:100B500000F06AF9049E002E18BF012600F084F907
:100B60004DF68361B040C4F21B31A0FB01014FF090
:100B7000FF3000EB914140F2445041F20042C2F29A
:100B80000000C4F2000240F2E733C0E90021C0E9EE
:100B900002530561856100F005FC054610B1284649
:100BA00006B070BD40F24450C2F2000000F0D8FC24
:100BB00005460028F3D1372000F036F80F2C0DD869
:100BC000372021460022002500F042F840F20400C0
:100BD000C2F200000460284606B070BD0125284618
:100BE00006B070BD82B0002043F640010190C4F20F
:100BF00002014A6842F480424A604A6802F4804234
:100C00000192019A00900868002240F0805008602C
:100C100008680F2100F08050009000986FF00100EC
:100C200002B000F015B80000002848BF7047C1B2FC
:100C300000F01F00012202FA00F04EF20012CEF284
:100C4000000242EAD10121F0030108607047000070
:100C500010B54EF60C5CCEF2000CDCF80030C3F39D
:100C6000022E8EF00704042C28BF0424BEF10303D7
:100C70004FF0FF3E0EFA04F438BF0023A143994021
:100C80000EFA03F39A43114300F00F0200F16043A0
:100C90000901043A03F564436244002848BF02F1A5
:100CA0000C03197010BD00004EF60C51CEF200017D
:100CB0000A684FF6FF031A4060F30A2242F0806090
:100CC00040F0FD70086070472DE9F041002800F009
:100CD0008B8043F60808C4F202080446D8F8F803EB
:100CE0000D4600F00700884207D288F8F853D8F87C
:100CF000F80300F00700A84276D12068810717D5D5
:100D0000410705D5D8F8001041F4E051C8F80010AB
:100D1000010705D5D8F8001041F46041C8F800106B
:100D2000D8F80010A26821F0F0011143C8F80010B3
:100D3000C0073FD1D8F8F80300F00700A84207D950
:100D400088F8F853D8F8F80300F00700A8424BD110
:100D50002068410707D5D8F80010E26821F4E05177
:100D60001143C8F80010000708D5D8F80000216921
:100D700020F4604040EAC100C8F8000000F09CF890
:100D8000D8F8001047F2BE02C1F30311C0F600020A
:100D9000515C40F2080220FA01F140F20400C2F274
:100DA00000000068C2F200021160FFF7BDFE0020E3
:100DB000BDE8F0816068811E022907D258F8081C3E
:100DC00089015CBF0120BDE8F08111E0012807D155
:100DD00058F8081C89035CBF0120BDE8F08107E0DA
:100DE00058F8081C890703D40120BDE8F08100BF32
:100DF000D8F8001021F003010843C8F80000FFF7FD
:100E000063FE064641F28837D8F80000616800F0BA
:100E10000C00B0EB810F8DD0FFF756FE801BB8425F
:100E2000F2D90320BDE8F0810F22026043F60802E8
:100E3000C4F20202136803F003034360136803F073
:100E4000F0038360136803F4E053C360D2F800C07A
:100E50004FF4E05303EADC030361D2F8F80300F037
:100E6000070008607047000040F2080043F60801E0
:100E7000C2F20000C4F202010068096847F2CE0223
:100E8000C1F38221C0F60002515CC84070470000E7
:100E900040F2080043F60801C2F20000C4F2020169
:100EA0000068096847F2CE02C1F34231C0F6000281
:100EB000515CC8407047000010B543F60404C4F20A
:100EC0000204606800F00C0142F200400829C0F200
:100ED000F40007D0042918BF10BD41F20020C0F271
:100EE0007A0010BD216801F03F02216823684902A1
:100EF000C3F3881106D4A1FB00010023FFF760F9BA
:100F000007E000BF41F20020C0F27A004843B0FB86
:100F1000F2F021680222C1F3014102EB4101B0FB72
:100F2000F1F010BD2DE9F04182B0002868D00446F0
:100F3000007843F60006C007C4F202060BD0B06882
:100F400000F00C00042840F09F803068800302D538
:100F50006068002854D0207880071AD5B06810F057
:100F60000C0F09D0B06800F00C00082840F0A680F3
:100F70007068400200F1A2803068800702D5E06806
:100F800001283DD13068216920F0F80040EAC10015
:100F900030602078000737D4207840074CD4A5690A
:100FA00055B3B06800F00C00082840F0BB80012D5C
:100FB00026D07068E16900F480028A4220D1216A5B
:100FC00000F03F028A421BD147F6C071626A0140BD
:100FD000B1EB821F14D1A16A4FF6FF73C903994385
:100FE00000F44032A1F580318A4209D1E16A00F073
:100FF0007060B0EB016F03D1002002B0BDE8F0815A
:10100000012002B0BDE8F0816069002840F20000D4
:10101000C4F2472076D00121C0F8801EFFF754FDAE
:10102000054600BF706F8007B6D4FFF74DFD401B2B
:101030000228F7D9DDE000BF306C10F080580AD1EB
:1010400000200190306C40F080503064306C00F033
:1010500080500190019847F20007C4F200073868F9
:10106000C00541D4386840F480703860FFF72CFD2B
:10107000054600BF3868C00536D4FFF725FD401B84
:101080000228F7D9B5E000BFB06800F00C000828CE
:1010900003D1706840023FF558AF6068B0F5803FFB
:1010A00007D0B0F5A02F40F08D80306840F480204C
:1010B0003060306840F4803030608DE0E0680028B7
:1010C00052D00020C4F2472001210160FFF7FCFC50
:1010D000054600BF306880073FF554AFFFF7F4FCCA
:1010E000401B0228F6D984E0A068012805D0052815
:1010F0004ED1306F40F004003067306F40F0010097
:1011000030674FE00021C0F8801EFFF7DDFC054688
:10111000706F80077FF540AFFFF7D6FC401B0228B9
:10112000F6D966E00027C4F2472700203866FFF7AB
:10113000CBFC022D05460BD1306880015ED5FFF750
:10114000C3FC401B02284FF00300F5D955E700BF50
:10115000306880017FF550AFFFF7B6FC401B0228D6
:101160004FF00300F4D948E70020C4F247200021E3
:101170000160FFF7A9FC0546306880077FF509AFDD
:10118000FFF7A2FC401B02284FF00300F4D934E71C
:10119000316F002821F001013167316F21F0040126
:1011A00031674DD0FFF790FC054641F2883700BF0C
:1011B000306F800756D4FFF787FC401BB842F7D941
:1011C00017E000BF3168002821F4803131603168B8
:1011D00021F4802131604FD0FFF776FC054600BF37
:1011E000306880033FF5B7AEFFF76EFC401B642804
:1011F000F6D9032002B0BDE8F08100BF04F11C0560
:101200002FCD084340EA8210D9034FF6FF72914375
:10121000A1F5803140EA056008437060012038661E
:10122000FFF752FC044600BF306880013FF5E4AE92
:10123000FFF74AFC001B02284FF00300F4D9DCE65C
:10124000FFF742FC054641F2883700BF306F800748
:1012500008D5FFF739FC401BB8424FF00300F5D921
:10126000CBE600BFB8F1000F7FF499AE306C20F0F0
:101270008050306493E600BFFFF726FC054600BFB0
:10128000306880037FF567AEFFF71EFC401B6428C3
:101290004FF00300F4D9B0E670470000704700003B
:1012A000B0B590F83C20012A04BF0220B0BD01F186
:1012B00008053CCDD1E900CE23F47C5322F47052D2
:1012C0001A432EF4F0431A432CF4E0431A4324F457
:1012D000C0431A432A43C96922F480420368114378
:1012E0005964002180F83C100846B0BD10B590F854
:1012F0003C20012A4FF0020251D080F83D200268C4
:10130000D2F804E0D2F808C00C682EF07003234332
:1013100041F2FF74C4F20004A24253600EDC40F2BA
:10132000FF73C4F200039A4216DCB2F1804F2BD057
:1013300040F20043C4F2000324E000BF40F2FF3358
:10134000C4F201039A4213DC41F60003C4F2000325
:101350009A4219D0002313E040F60003C4F20003C0
:101360009A4211D040F60043C4F200030AE000BFE5
:1013700044F20003C4F201039A4205D040F2004354
:10138000C4F201039A4204D149682CF08003194346
:1013900091600121002280F83D1080F83C20104629
:1013A00010BD0000002804BF0120704710B504469E
:1013B00090F83D0028B9002084F83C00204600F059
:1013C0001FF8022084F83D002068211D02F0E4FC93
:1013D000012084F8460084F83E0084F83F0084F839
:1013E000400084F8410084F8420084F8430084F807
:1013F000440084F8450084F83D00002010BD000042
:1014000080B582B0006841F2FF71C4F200018842E9
:101410001EDD40F2FF31C4F20101884238DC41F6A2
:101420000001C4F20001884258D00021C4F2010139
:10143000884262D10020019043F64000C4F20200CD
:10144000416841F001014160406800F0010038E06E
:10145000B0F1804F54D040F20041C4F20001884204
:101460006CD040F60001C4F20001884245D1002052
:10147000019043F64000C4F20200016841F004010B
:101480000160006800F004000190019802B080BD86
:1014900040F20041C4F20101884243D044F200010D
:1014A000C4F20101884228D10020019043F6400097
:1014B000C4F20200416841F480314160406800F4A8
:1014C000803001900198182005210022FFF7C0FB11
:1014D000182002B0BDE88040FFF7A6BB00200190B5
:1014E00043F64000C4F20200016841F0400101608F
:1014F000006800F040000190019802B080BD00BF7C
:101500000020019043F64000C4F20200016841F05F
:1015100001010160006800F001000190019802B033
:1015200080BD00BF0020019043F64000C4F20200DD
:10153000416841F00201416040680AE000200190EA
:1015400043F64000C4F20200016841F0020101606C
:10155000006800F002000190019802B080BD000018
:1015600090F83D1001291CBF01207047022180F82E
:101570003D10006841F2FF72C168C4F2000290425F
:1015800041F00101C1600DDC40F2FF71C4F20001C5
:10159000884215DCB0F1804F2AD040F20041C4F2FD
:1015A000000123E040F2FF31C4F20101884213DC64
:1015B00041F60001C4F20001884219D0002113E075
:1015C00040F60001C4F20001884211D040F600410B
:1015D000C4F200010AE000BF44F20001C4F20101BC
:1015E000884205D040F20041C4F20101884206D190
:1015F000816801F00701062904BF002070470168D7
:1016000041F00101016000207047000080B590F8B2
:101610003C20012A4FF0020200F0C28080F83D20F9
:10162000D0F800C04FF67772DCF8083023EA0202E7
:10163000CCF808200B684F2B28DC1F2B44DD202B17
:1016400045D0302B43D0402B40F0AC80D1F804E0A3
:10165000C968DCF82030DCF8202022F00102CCF848
:101660002020DCF8182022F0F00242EA011123F0D9
:101670000A0242EA0E02CCF81810CCF82020DCF85E
:10168000081041F0470121F0300180E06F2B27DD89
:10169000B3F5005F48D0B3F5805F7AD0702B40F08F
:1016A0008180D1E901E3C968DCF8082043EA0E0330
:1016B00022F47F4243EA01211143CCF80810DCF800
:1016C000081041F0770162E00BB1102B6AD1DCF811
:1016D000081021F07001194341F0070157E000BFE5
:1016E000502B35D0602B5DD1D1F804E0C968DCF80F
:1016F000203023F01003CCF82030DCF81830DCF870
:10170000202023F4704322F0A00243EA013142EA90
:101710000E12CCF81810CCF82020DCF8081041F09C
:10172000670121F0100132E0D1E901E3C968DCF87A
:10173000082043EA0E0322F47F4243EA01211143C9
:10174000CCF80810DCF8081041F480411FE000BF1D
:10175000D1F804E0C968DCF82030DCF8202022F061
:101760000102CCF82020DCF8182022F0F00242EA36
:10177000011123F00A0242EA0E02CCF81810CCF84C
:101780002020DCF8081041F0570121F02001CCF8AE
:1017900008100022012180F83D10002180F83C1043
:1017A000104680BD0122F5E77047000010B50168C2
:1017B00004460869800744BFC8685FEA807039D46E
:1017C0000869400744BFC8685FEA40703ED40869B2
:1017D000000744BFC8685FEA007045D40869C006C6
:1017E00044BFC8685FEAC0604AD40869C0071CBF2C
:1017F000C8685FEAC07051D10869000644BFC86874
:101800005FEA006052D40869400644BFC8685FEAD6
:10181000406053D40869800646BFC8685FEA8060AC
:1018200010BD6FF0200220460A61BDE81040FFF7AE
:1018300035BD00BF6FF00200086101202077886984
:10184000800743D02046FFF7AFFF45E06FF004006C
:10185000086102202077886910F4407F40D020463C
:10186000FFF7A2FF42E000BF6FF00800086104200C
:101870002077C86980073DD02046FFF795FF3FE0FD
:101880006FF01000086108202077C86910F4407FCD
:101890003AD02046FFF788FF3CE000BF6FF0010020
:1018A0000861204600F042FB2168A5E76FF0800048
:1018B00008612046FFF7F0FC2168A4E76FF04000C4
:1018C0000861204600F03CFB2168A3E7204600F0B9
:1018D0005DF9204600F09EFA2168002020776FE72E
:1018E000204600F053F9204600F094FA21680020C9
:1018F00020776CE7204600F049F9204600F08AFA8C
:1019000021680020207769E7204600F03FF9204653
:1019100000F080FA21680020207766E7F0B587B0F4
:10192000006841F2FF71C4F2000188424FF00001EB
:101930000691CDE90411CDE9021129DD40F2FF3114
:10194000C4F20101884253DC41F60001C4F20001F7
:10195000884279D00021C4F20101884240F013810D
:10196000002043F630010190C4F202010A6842F0FF
:1019700010020A60096801F01001019101994FF409
:10198000D44102910221CDE903100590012052E0DB
:10199000B0F1804F76D040F20041C4F2000188429D
:1019A00000F0BE8040F60001C4F20001884240F021
:1019B000EA80002043F630010190C4F202010A6877
:1019C00042F008020A60096801F0080101910199DA
:1019D0004FF4704102910221CDE90310CDE90501D8
:1019E00040F20040C4F2020000F50064C7E000BF0E
:1019F00040F20041C4F20101884271D044F200017A
:101A0000C4F20101884240F0BE80002043F630015C
:101A10000190C4F202010A6842F010020A600968EB
:101A200001F0100101910199602102910221CDE99B
:101A3000031005900320069040F20040C4F202001B
:101A400000F540649BE000BF002043F630010190A8
:101A5000C4F202010A6840F2004442F002020A6045
:101A60000968C4F2020401F00201019101994FF4E6
:101A7000404102910221CDE9031005900920069012
:101A80007DE000BF002543F630000195C4F202005E
:101A9000016840F2004441F0010101600168C4F2B4
:101AA000020401F0010101910199019501680126EB
:101AB00041F0020101600068022700F0020001907D
:101AC0000198A4F5806002A90296CDE90375CDE9DD
:101AD0000556FEF71FFF4FF44060CDE902074BE0CB
:101AE000002043F630010190C4F202010A6842F07E
:101AF00004020A60096801F00401019101994FF4A0
:101B0000307102910221CDE9031005900320069067
:101B100040F20040C4F2020000F580642FE000BFF4
:101B2000002543F630000195C4F20200016840F23E
:101B3000004441F0010101600168C4F2020401F0B7
:101B400001010191019901950168022641F002010C
:101B50000160006802A900F0020001900198C02015
:101B60000290A4F58060CDE90365CDE90556FEF746
:101B7000D1FE0320CDE9020604950595069602A93B
:101B80002046FEF7C7FE07B0F0BD0000704700001A
:101B90002DE9F04390F83C30012B04BF0220BDE852
:101BA000F0834FEAB202032A00F2FC80DFE802F081
:101BB000023E7EBE036840F200471A6A43F4806525
:101BC00022F001021A621C6A1A46D3F804E052F8A5
:101BD00018CF8E6824F00204C4F20107BD4244EA23
:101BE000060405D1CE6824F00C0426F00406344324
:101BF0000E68BD4207D1D1E905572EF4407E45EA73
:101C00000E0545EA070E2CF073073743C3F804E0CE
:101C10009F614F6809695F631C629F6947F008070D
:101C20009F619F6927F004079F61B1E0036840F25C
:101C300000481A6A43F4806522F010021A621C6A96
:101C40001A46D3F804C052F818EF8F6824F0200425
:101C5000C4F20108454544EA071407D1CF686FF084
:101C6000400624F0C00406EA07163443D1F8009079
:101C7000454506D1D1E905562CF440672E4347EA85
:101C8000860C2EF4E64747EA0927C3F804C09F6193
:101C90004F6809699F631C629F6947F400679F61F1
:101CA0009F6927F480679F6171E000BF036840F27D
:101CB00000481A6A43F4806522F480721A621C6A32
:101CC0001A46D3F804C052F81CEF8F6824F400744D
:101CD000C4F20108454544EA072408D1CF6840F220
:101CE000FF463F0224F4406427EA06063443D1F855
:101CF0000090454506D1D1E905562CF440572E43B6
:101D000047EA061C2EF0730747EA0907C3F804C028
:101D1000DF614F680969DF631C62DF6947F008070C
:101D2000DF61DF6927F00407DF6131E0036840F21B
:101D300000451A6A43F4806722F480521A621A46F8
:101D4000D3F820C05C6852F81CEFD1F800808E6890
:101D5000C4F20105AF4204D14D6924F4804444EA41
:101D600085142CF4005747EA06372EF4E64646EA77
:101D700008265C60DE614E6809691E641F62DF69C7
:101D800047F40067DF61DF6927F48067DF610902DC
:101D90001368194311600021002280F83C20084696
:101DA000BDE8F0830121002280F83C200846BDE810
:101DB000F0830000002804BF0120704710B50446DE
:101DC00090F83D0028B9002084F83C00204600F03F
:101DD0001FF8022084F83D002068211D01F0DCFF7F
:101DE000012084F8460084F83E0084F83F0084F81F
:101DF000400084F8410084F8420084F8430084F8ED
:101E0000440084F8450084F83D00002010BD000027
:101E1000704700007047000041B1082910D0042924
:101E200014BF00F1410200F13F020BE090F83E20A8
:101E3000012A1CBF01207047022280F83E2013E0D7
:101E400000F140021278012A1CBF012070470222D3
:101E5000082907D0042914BF80F8412080F83F20CA
:101E600002E000BF80F84020006801F01F0101225D
:101E7000036A02FA01F123EA01020262026A1143D3
:101E800041F2FF72C4F20002904201620CDC40F2A7
:101E9000FF71C4F20001884214DCB0F1804F37D0EA
:101EA00040F2004116E000BF40F2FF31C4F20101F0
:101EB000884215DC41F60001C4F20001884227D0B7
:101EC000002115E040F60001C4F2000188421FD055
:101ED00040F60041C4F20001884219D01FE000BF63
:101EE00044F20001C4F20101884211D040F20041E5
:101EF000C4F20101884212D1416C40F2004340F427
:101F00008062C4F2010341F400419A42416406D167
:101F1000816801F00701062904BF002070470168AD
:101F200041F001010160002070470000006841F2AB
:101F30000041C4F20001884218BF7047FEF7CABDD5
:101F40007047000070B582B0044690F83E0020282B
:101F50000ED113460A4600294FF0010018BF002B8E
:101F600002D102B070BD00BF94F83C00012803D13B
:101F7000022002B070BD00BF012084F83C00206345
:101F800000262220A262A385266484F83E002168F0
:101F9000A06B44F25D0C44F2B91E43F6E165C0F655
:101FA000000CC0F6000EC0F600050431C0E90FCEEB
:101FB000C0E91356FEF75EFC0196206801680191A6
:101FC000406801900198206984F83C6030B300BFFC
:101FD000206850E8030F216840F4807041E8030254
:101FE000E2B1206850E8030F216840F4807041E8B6
:101FF00003029AB1206850E8030F216840F4807012
:1020000041E8030252B1206850E8030F216840F410
:10201000807041E80302002ADAD100BF206850E84E
:10202000050F216840F0010041E80502E2B1206897
:1020300050E8050F216840F0010041E805029AB11F
:10204000206850E8050F216840F0010041E80502D2
:1020500052B1206850E8050F216840F0010041E8C6
:102060000502002ADAD100BF206850E8050F216878
:1020700040F0400041E80502DAB1206850E8050F61
:10208000216840F0400041E8050292B1206850E824
:10209000050F216840F0400041E805024AB1206880
:1020A00050E8050F216840F0400041E80502002A91
:1020B000DAD1206B01282FD1002000902068016820
:1020C0000091406800900098206850E8030F216854
:1020D00040F0100041E8030212B3206850E8030FFB
:1020E000216840F0100041E80302CAB1206850E8BE
:1020F000030F216840F0100041E8030282B120681C
:1021000050E8030F216840F0100041E80302002A64
:102110004FF00000D8D124E7012002B070BD00BF0D
:10212000002002B070BD0000F0B581B040F26064E4
:10213000C2F20004A0421CBF01B0F0BD20460D4613
:1021400000F01AF840F2180040F63846C2F20000DB
:10215000C2F20006006800273146002200237755AE
:1021600002F0C8FD204631467F2284F83C7001B061
:10217000BDE8F040FFF7E6BE10B5044600684169CF
:1021800094F83D20212A56D111F0800153D000BF90
:10219000206850E8050F216820F0800041E8050222
:1021A000DAB1206850E8050F216820F0800041E88E
:1021B000050292B1206850E8050F216820F08000E8
:1021C00041E805024AB1206850E8050F216820F077
:1021D000800041E80502002ADAD1606B002818BFB0
:1021E000FEF75CF9206850E8030F216820F0C0007A
:1021F00041E80302DAB1206850E8030F216820F0BB
:10220000C00041E8030292B1206850E8030F216842
:1022100020F0C00041E803024AB1206850E8030FF3
:10222000216820F0C00041E80302002ADAD1202012
:1022300084F83D002068406994F83E10222940F05F
:10224000A78010F0400000F0A38000BF206850E895
:10225000050F216820F0400041E80502DAB120684E
:1022600050E8050F216820F0400041E8050292B1D6
:10227000206850E8050F216820F0400041E8050281
:102280004AB1206850E8050F216820F0400041E87D
:102290000502002ADAD1A06B002818BFFEF7FEF86D
:1022A000206850E8030F216820F4907041E8030291
:1022B000BAB3206850E8030F216820F4907041E819
:1022C000030272B3206850E8030F216820F4907075
:1022D00041E803022AB3206850E8030F216820F484
:1022E000907041E80302002ADAD11AE0206850E831
:1022F000050F216820F0010041E80502DAB12068ED
:1023000050E8050F216820F0010041E8050292B174
:10231000206850E8050F216820F0010041E805021F
:102320004AB1206850E8050F216820F0010041E81B
:102330000502002ADAD1206B012824D1206850E858
:10234000030F216820F0100041E80302DAB1206891
:1023500050E8030F216820F0100041E8030292B119
:10236000206850E8030F216820F0100041E80302C4
:102370004AB1206850E8030F216820F0100041E8BE
:102380000302002ADAD1202084F83E0000202063D6
:10239000002010BD70470000B0B582B00446006850
:1023A0000168C368426901F02F05202D03F0200564
:1023B00006D12DB1204602B0BDE8B04001F006BF05
:1023C0005FEA017C1EBF02F0010E03F4907212EB73
:1023D0000E0253D1226B012A05D111F0100218BF51
:1023E00013F0100236D10A0622D513F080021FD056
:1023F00094F83D1021293FD1A168B1F5805F03D148
:102400002169002900F07282216A4A1C226209783F
:102410004160E18C01390A04E1842DD1C16821F0C9
:102420008001C160C16841F04001C16002B0B0BD2F
:10243000490621D513F040011ED0C16821F04001AA
:10244000C1602021204684F83D1002B0BDE8B040B4
:1024500000F028BD002101910168019141680191BE
:1024600001994069400613D4A08DE18DE28D002AC8
:1024700018BF884240F0BE8102B0B0BDCA0718BF85
:1024800013F4807240F0BA804A0700F1BD80C2E0C8
:10249000A16B0868426893B2002BEDD0A08D8342F7
:1024A000EAD2E285C969B1F5807F00F09D8020689D
:1024B00050E8030F216820F4807041E80302DAB18C
:1024C000206850E8030F216820F4807041E803027F
:1024D00092B1206850E8030F216820F4807041E831
:1024E00003024AB1206850E8030F216820F480708D
:1024F00041E80302002ADAD1206850E8050F21687C
:1025000020F0010041E80502DAB1206850E8050F2B
:10251000216820F0010041E8050292B1206850E8EE
:10252000050F216820F0010041E805024AB120684A
:1025300050E8050F216820F0010041E80502002A5B
:10254000DAD1206850E8050F216820F0400041E80A
:102550000502DAB1206850E8050F216820F040003C
:1025600041E8050292B1206850E8050F216820F08B
:10257000400041E805024AB1206850E8050F216893
:1025800020F0400041E80502002ADAD1202084F83A
:102590003E0000202063206850E8030F216820F0EF
:1025A000100041E80302DAB1206850E8030F216807
:1025B00020F0100041E8030292B1206850E8030FB8
:1025C000216820F0100041E803024AB1206850E879
:1025D000030F216820F0100041E80302002ADAD13D
:1025E000A06BFDF75BFFA08DE18D401A81B2204604
:1025F00002B0BDE8B040FFF797BD00BF226C42F0CB
:10260000010222644A0706D5BEF1000F03D0226CF6
:1026100042F0020222648A0706D5BEF1000F03D001
:10262000226C42F004022264BCF1000F09D545EA95
:102630000E02B2FA82F2520903D1226C42F0080271
:102640002264226C002A3FF417AF11F0200118BF5A
:10265000002D03D0204601F0B9FD20684069216CAF
:1026600000F0400001F00801401800F0B58000BF04
:10267000206850E8030F216820F4907041E80302BD
:10268000BAB3206850E8030F216820F4907041E845
:10269000030272B3206850E8030F216820F49070A1
:1026A00041E803022AB3206850E8030F216820F4B0
:1026B000907041E80302002ADAD11AE0206850E85D
:1026C000050F216820F0010041E80502DAB1206819
:1026D00050E8050F216820F0010041E8050292B1A1
:1026E000206850E8050F216820F0010041E805024C
:1026F0004AB1206850E8050F216820F0010041E848
:102700000502002ADAD1206B012824D1206850E884
:10271000030F216820F0100041E80302DAB12068BD
:1027200050E8030F216820F0100041E8030292B145
:10273000206850E8030F216820F0100041E80302F0
:102740004AB1206850E8030F216820F0100041E8EA
:102750000302002ADAD1202084F83E000020206302
:102760002068406940063FD5206850E8050F216881
:1027700020F0400041E80502DAB1206850E8050F7A
:10278000216820F0400041E8050292B1206850E83D
:10279000050F216820F0400041E805024AB1206899
:1027A00050E8050F216820F0400041E80502002AAA
:1027B000DAD1A06BC0B143F6D561C0F60001016566
:1027C000FDF7B4FE00283FF457AEA06B016D02B0D8
:1027D000BDE8B040084700BF2046FFF7DBFD002002
:1027E000206402B0B0BD00BF204602B0BDE8B040DA
:1027F000FFF7D0BD401A216851E8031F226821F479
:10280000907142E80313DBB1216851E8031F22688D
:1028100021F4907142E8031393B1216851E8031F3A
:10282000226821F4907142E803134BB1216851E80A
:10283000031F226821F4907142E80313002BDAD1C0
:10284000216851E8051F226821F0010142E80513C3
:10285000DBB1216851E8051F226821F0010142E83F
:10286000051393B1216851E8051F226821F0010189
:1028700042E805134BB1216851E8051F226821F099
:10288000010142E80513002BDAD1202184F83E1023
:1028900000212163216851E8031F226821F0100103
:1028A00042E80313002B3FF4A1AE216851E8031F57
:1028B000226821F0100142E80313002B3FF496AE8A
:1028C000216851E8031F226821F0100142E8031338
:1028D000002B3FF48BAE216851E8031F226821F0E2
:1028E000100142E80313002BD4D17FE6216A31F8AE
:1028F000022B6FF35F22426021628AE5002804BF49
:102900000120704710B5044690F83D0028B900201A
:1029100084F83C00204600F021F8242084F83D0093
:102920002068C16821F40051C160204601F0CEFC4E
:102930002068016921F490410161416921F02A0177
:102940004161C16841F40051C16000202021206430
:1029500084F83D1084F83E1010BD00002DE9F043CE
:1029600087B00446006844F20041C4F2000100262A
:102970008842CDE90566CDE90366029672D044F639
:102980000001C4F20001884200F0D28041F200014F
:10299000C4F20101884240F03981002643F630003C
:1029A0000196C4F20200416946F2280841F0100184
:1029B00041614169C4F2020801F0100101910199DD
:1029C0000196016841F001010160006802A900F070
:1029D0000100019001984FF4C06002900220CDE9FF
:1029E000030603200590072006900020C4F2020091
:1029F000FDF790FF40F29C1508F58360C2F20005D8
:102A00004FF000674FF48069C5E900072846C5E923
:102A10000266C5E90496C5E90666C5E90866FDF7DC
:102A200077FE002818BFFDF787FCA563AC6340F272
:102A3000FC1508F59260C2F200054021C5E90007C7
:102A400005F1080080E842022846C5E90566C5E9A7
:102A500007666E62FDF75CFE00284FF0250640F029
:102A6000C980C9E043F630000196C4F20200016952
:102A700046F2280841F4003101610169C4F20208FC
:102A800001F40031019101990196016841F00101C1
:102A90000160006802A900F00100019001980C207B
:102AA00002900220CDE9030603200590072006903E
:102AB0000020C4F20200FDF72DFF40F25C2508F172
:102AC0006000C2F200054FF000674FF48069C5E96D
:102AD00000072846C5E90266C5E90496C5E9066609
:102AE000C5E90866FDF714FE002818BFFDF724FCB1
:102AF000A563AC6340F2BC2508F17800C2F2000582
:102B00004021C5E9000705F10800002280E806021F
:102B10002846C5E90522C5E907226A62FDF7F8FDE6
:102B200000284FF0260618BFFDF706FC64E000BF42
:102B3000002643F630000196C4F20200016946F215
:102B4000280841F4802101610169C4F2020801F4FE
:102B50008021019101990196016841F0080101600D
:102B6000006802A900F00800019001984FF440703D
:102B700002900220CDE9030603200590072006906D
:102B80000020C4F2020000F54060FDF7C3FE40F2F1
:102B90001C35C2F200054FF000674FF480692846EB
:102BA000C5E90087C5E90266C5E90496C5E9066678
:102BB000C5E90866FDF7ACFD002818BFFDF7BCFBB2
:102BC000A563AC6340F27C3508F13000C2F2000529
:102BD0004021C5E9000705F1080080E842022846C7
:102BE000C5E90566C5E907666E62FDF791FD4FF020
:102BF000270608B1FDF7A0FB3046052100226563DA
:102C0000AC63FEF725F83046FEF70EF807B0BDE8D6
:102C1000F083000070470000704700002DE9F0438A
:102C200081B0044690F83D0020280DD10F460029C0
:102C30004FF0010000F0DD801646002A00F0D98038
:102C400094F83C00012803D1022001B0BDE8F083D4
:102C5000012084F83C000020206421201D4684F8D7
:102C60003D00FDF731FFA684E684A1680646B1F574
:102C7000805F03D12069002800F01081B84600274A
:102C8000002084F83C00E18C2068002900F090804E
:102C900005F101090DE000BFB8F1000F28D018F8C8
:102CA000011B4160E18C0139E184E18C002900F0D5
:102CB0007F8001680906EFD4B9F1000F0AD0FDB199
:102CC000FDF702FF801BA8421AD820680168090698
:102CD000F6D5E1E701680906DED4016809065CBFA4
:102CE00001685FEA0161D7D401680906F2D5D3E72C
:102CF00037F8021B4FF000086FF35F21D1E700BFE8
:102D0000206850E8030F216820F4D07041E80302E6
:102D1000BAB3206850E8030F216820F4D07041E86E
:102D2000030272B3206850E8030F216820F4D070CA
:102D300041E803022AB3206850E8030F216820F419
:102D4000D07041E80302002ADAD11AE0206850E886
:102D5000050F216820F0010041E80502DAB1206882
:102D600050E8050F216820F0010041E8050292B10A
:102D7000206850E8050F216820F0010041E80502B5
:102D80004AB1206850E8050F216820F0010041E8B1
:102D90000502002ADAD1202084F83D0084F83E00A4
:102DA000002084F83C00032001B0BDE8F08300BFA0
:102DB0000168490619D4FDB1691C0DD101684906A5
:102DC00013D4016849065CBF01685FEA41610CD415
:102DD00001684906F2D508E0FDF776FE801BA8429F
:102DE0000AD8206800684006F6D5202084F83D0007
:102DF000002001B0BDE8F083206850E8030F21688F
:102E000020F4D07041E80302E2B3206850E8030FD9
:102E1000216820F4D07041E803029AB3206850E89A
:102E2000030F216820F4D07041E8030252B32068F8
:102E300050E8030F216820F4D07041E80302002A13
:102E4000DAD11FE0206850E8050F216820F001006A
:102E500041E80502002A9ED0206850E8050F21684D
:102E600020F0010041E80502002A3FF494AF2068F9
:102E700050E8050F216820F0010041E80502002A12
:102E80003FF489AF206850E8050F216820F0010069
:102E900041E80502002AD5D17DE700BF4FF00008C8
:102EA000EEE6000070470000FEE7000080B582B04B
:102EB0000020CDE9000040F2881047F20041C2F244
:102EC0000000C4F200010160FDF762FA002818BF9B
:102ED000FDF732FA40F28810C2F200006946002283
:102EE000FDF730FA002818BFFDF726FA40F28810E7
:102EF000C2F2000069461022FDF724FA002818BF2C
:102F0000FDF71AFA02B080BD80B582B0002043F60A
:102F100030010190C4F202010A6842F400120A6012
:102F20000A6802F400120192019A009008680022D7
:102F300040F4800008600868052100F480000090DB
:102F400000980C20FDF784FE0C20FDF76DFE0E208E
:102F500005210022FDF77CFE0E20FDF765FE102006
:102F600005210022FDF774FE1020FDF75DFE112003
:102F700005210022FDF76CFE1120FDF755FE3A20D9
:102F800005210022FDF764FE3A20FDF74DFE4620A4
:102F900005210022FDF75CFE462002B0BDE880401E
:102FA000FDF742BE10B547F24C12C0F600021020E9
:102FB000802101F055FE40F21804C2F200042060A6
:102FC00043F6753047F2D802C0F60000C0F60002A2
:102FD000002101F0E3FE606043F6ED3047F220127D
:102FE000C0F60000C0F60002002101F0D7FEA0608C
:102FF00043F6C13047F2FC02C0F60000C0F6000202
:10300000002101F0CBFEE06010BD00002DE9F04F83
:1030100087B0002443F6300006940194C4F2020005
:10302000016840F2000A41F0100101600168C4F239
:10303000020A01F0100101910199019401680AF559
:10304000805841F0800101600168002201F0800198
:10305000019101990194016848F20C0641F00101C7
:103060000160016801F00101019101990194016879
:1030700041F002010160016801F002010191019932
:103080000194016841F008010160016801F0080144
:10309000019101990194016841F004010160006807
:1030A00048F20C0100F00400019001984046FDF741
:1030B00005FD504602210022FDF700FD0AF580655E
:1030C00028464FF4805101224FF0010BFDF7F6FC2A
:1030D00028464FF400510022FDF7F0FC0AF5406746
:1030E00038464FF480610122FDF7E8FC38464FF482
:1030F00004610022FDF7E2FC0AF5006948464FF43E
:1031000080710022FDF7DAFC50464FF480710122F5
:10311000FDF7D4FCCDE9026B02AE40463146CDE965
:103120000444FDF7F7FB4FF48170CDE9020B5046E4
:103130003146CDE90444FDF7EDFB4FF44050CDE9B5
:10314000020B28463146CDE90444FDF7E3FB4FF47A
:103150004460CDE9020B38463146CDE90444FDF721
:10316000D9FB4FF48070CDE9020B48463146CDE9DA
:103170000444FDF7CFFB07B0BDE8F08F80B58CB0FD
:1031800040F224400021C2F2000041F600024FF05C
:10319000630C0B91CDE909110791CDE90511CDE93A
:1031A0000311CDE90111C4F200025323C0E9021C4E
:1031B00001618021C0E900238161FEF7F3F8002856
:1031C00018BFFDF7B9F84FF48050089040F2244042
:1031D000C2F2000008A9FEF719FA002818BFFDF78F
:1031E000ABF840F22440C2F20000FEF7E3FD0028F5
:1031F00018BFFDF7A1F8602001900020CDE9020082
:10320000059040F22440C2F2000001A90022FEF71E
:10321000BFFC002818BFFDF78FF840F22440C2F22F
:10322000000001A90422FEF7B3FC002818BFFDF737
:1032300083F840F22440C2F20000FEF76FFB0CB0AE
:1032400080BD000010B596B040F2DC3000220021B5
:10325000C2F20000C4F2010240F28F6340F2CF7468
:103260004FF0800C1591CDE913111191CDE90F119B
:10327000CDE90D11CDE90B11CDE90911CDE907110A
:10328000CDE90511CDE90311CDE90111C0E9002314
:10329000C0E90214C0E90411C0F818C0FEF782F8B2
:1032A000002818BFFDF748F84FF48050129040F204
:1032B000DC30C2F2000012A9FEF7A8F9002818BFFE
:1032C000FDF73AF840F2DC30C2F20000FEF772FD82
:1032D000002818BFFDF730F840F2DC300024C2F2BD
:1032E000000010A9CDE91044FEF700F8002818BF2F
:1032F000FDF722F86020CDE9090440F2DC30C2F28B
:10330000000009A90022CDE90B44CDE90D440F943A
:10331000FEF73EFC002818BFFDF70EF840F2DC3047
:10332000C2F2000009A90422FEF732FC002818BFEF
:10333000FDF702F840F2DC30C2F2000009A90822D1
:10334000FEF726FC002818BFFCF7F6FF40F2DC3041
:10335000C2F2000009A90C22FEF71AFC002818BFCF
:10336000FCF7EAFF00200590CDE90300CDE901005C
:103370004FF40051089040F2DC300691C2F2000098
:1033800001A9FDF78DFF002818BFFCF7D5FF40F21B
:10339000DC30C2F20000FEF7C1FA16B010BD00002A
:1033A00010B58EB040F26C400021C2F200006324E0
:1033B0000D91CDE90B110991CDE90711CDE9051169
:1033C000CDE90311CDE901114FF0804240F24733BE
:1033D000C0E9021401618021C0E900238161FDF789
:1033E000E1FF002818BFFCF7A7FF4FF480500A90B8
:1033F00040F26C40C2F200000AA9FEF707F900286B
:1034000018BFFCF799FF40F26C40C2F20000FEF7D3
:10341000D1FC002818BFFCF78FFF40F26C4000245D
:10342000C2F2000008A9CDE90844FDF75FFF0028BB
:1034300018BFFCF781FF6020CDE9010440F26C4029
:10344000C2F2000001A9002203940594FEF7A0FB3C
:10345000002818BFFCF770FF40F26C40C2F2000079
:1034600001A90822FEF794FB002818BFFCF764FFAF
:1034700040F26C40C2F2000001A90C22FEF788FB6A
:10348000002818BFFCF758FF40F26C40C2F2000061
:10349000FEF744FA0EB010BD10B58EB040F2B44045
:1034A0000021C2F2000040F2004240F2CF740D91C0
:1034B000CDE90B110991CDE90711CDE90511CDE950
:1034C0000311CDE90111C4F2000240F24733C0E913
:1034D000021401618021C0E900238161FDF762FFD0
:1034E000002818BFFCF728FF4FF480500A9040F2E4
:1034F000B440C2F200000AA9FEF788F8002818BFFD
:10350000FCF71AFF40F2B440C2F20000FEF752FC92
:10351000002818BFFCF710FF40F2B4400024C2F2AC
:10352000000008A9CDE90844FDF7E0FE002818BF17
:10353000FCF702FF6020CDE9010440F2B440C2F282
:10354000000001A9002203940594FEF721FB002846
:1035500018BFFCF7F1FE40F2B440C2F2000001A92E
:103560000422FEF715FB002818BFFCF7E5FE40F229
:10357000B440C2F2000001A90822FEF709FB0028AE
:1035800018BFFCF7D9FE40F2B440C2F2000001A916
:103590000C22FEF7FDFA002818BFFCF7CDFE40F222
:1035A000B440C2F20000FEF7B9F90EB010BD000041
:1035B00010B58EB040F2FC400021C2F2000040F68F
:1035C000000263240D91CDE90B110991CDE907119A
:1035D000CDE90511CDE90311CDE90111C4F20002D5
:1035E00040F24733C0E9021401618021C0E90023A1
:1035F0008161FDF7D7FE002818BFFCF79DFE4FF450
:1036000080500A9040F2FC40C2F200000AA9FDF787
:10361000FDFF002818BFFCF78FFE40F2FC40C2F20D
:103620000000FEF7C7FB002818BFFCF785FE40F23C
:10363000FC400024C2F2000008A9CDE90844FDF7CF
:1036400055FE002818BFFCF777FE6020CDE9010485
:1036500040F2FC40C2F2000001A90022039405944C
:10366000FEF796FA002818BFFCF766FE40F2FC4011
:10367000C2F2000001A90422FEF78AFA002818BF4E
:10368000FCF75AFE40F2FC40C2F2000001A90822F9
:10369000FEF77EFA002818BFFCF74EFE40F2FC4011
:1036A000C2F2000001A90C22FEF772FA002818BF2E
:1036B000FCF742FE40F2FC40C2F20000FEF72EF999
:1036C0000EB010BD10B596B040F28C5040F20042E2
:1036D0000021C2F20000C4F2010240F24733632429
:1036E0004FF0800C1591CDE913111191CDE90F1117
:1036F000CDE90D11CDE90B11CDE90911CDE9071186
:10370000CDE90511CDE90311CDE90111C0E900238F
:10371000C0E90214C0E90411C0F818C0FDF742FE68
:10372000002818BFFCF708FE4FF48050129040F2BA
:103730008C50C2F2000012A9FDF768FF002818BFE4
:10374000FCF7FAFD40F28C50C2F20000FEF732FBAB
:10375000002818BFFCF7F0FD40F28C500024C2F2A4
:10376000000010A9CDE91044FDF7C0FD002818BFE6
:10377000FCF7E2FD6020CDE9090440F28C50C2F272
:10378000000009A90022CDE90B44CDE90D440F94B6
:10379000FEF7FEF9002818BFFCF7CEFD40F28C5072
:1037A000C2F2000009A90422FEF7F2F9002818BFAE
:1037B000FCF7C2FD40F28C50C2F2000009A90C22B5
:1037C000FEF7E6F9002818BFFCF7B6FD00200590CB
:1037D000CDE90300CDE901004FF40051089040F21B
:1037E0008C500691C2F2000001A9FDF759FD002896
:1037F00018BFFCF7A1FD40F28C50C2F20000FEF7AA
:103800008DF816B010BD000080B58CB040F2D450D9
:103810000021C2F2000044F200024FF0630C0B9151
:10382000CDE909110791CDE90511CDE90311CDE9E4
:103830000111C4F2010240F28F63C0E9021C016170
:103840008021C0E900238161FDF7ACFD002818BF8D
:10385000FCF772FD4FF48050089040F2D450C2F251
:10386000000008A9FDF7D2FE002818BFFCF764FD90
:1038700040F2D450C2F20000FEF79CFA002818BFB4
:10388000FCF75AFD602001900020CDE90200059070
:1038900040F2D450C2F2000001A90022FEF778F9EC
:1038A000002818BFFCF748FD40F2D450C2F20000D7
:1038B00001A90422FEF76CF9002818BFFCF73CFDB3
:1038C00040F2D450C2F20000FEF728F80CB080BDE0
:1038D00080B540F21C6041F20001C2F20000C4F267
:1038E000010100234FF00C0C4FF4E13280E80E0090
:1038F000C0E90333C0E905C3C361FEF7FFFF002839
:1039000008BF80BDBDE88040FCF716BD80B540F221
:10391000606044F20041C2F20000C4F200010023E2
:103920004FF00C0C4FF4E13280E80E00C0E9033395
:10393000C0E905C3C361FEF7E1FF002808BF80BDF1
:10394000BDE88040FCF7F8BC80B540F2A46044F6C6
:103950000001C2F20000C4F2000100234FF00C0C81
:103960004FF4E13280E80E00C0E90333C0E905C33B
:10397000C361FEF7C3FF002808BF80BDBDE88040DB
:10398000FCF7DABCFEE70000FEE7000000000000E4
:10399000EFF30980BFF36F8F154B1A681EF0100FFD
:1039A00008BF20ED108A20E9F04F10602DE90900D2
:1039B0004FF0500080F31188BFF34F8FBFF36F8F2C
:1039C00002F0AEFB4FF0000080F31188BDE8090063
:1039D00019680868B0E8F04F1EF0100F08BFB0EC8F
:1039E000108A80F30988BFF36F8F704700BF00BF54
:1039F000280000202DE9F04381B040F2DC38C2F20B
:103A0000000840460021FEF707FA40460421FEF771
:103A100003FA40460821FEF7FFF940460C21FEF765
:103A2000FBF940F26C49C2F2000948460021FEF75A
:103A3000F3F940F2B445C2F2000528460021FEF732
:103A4000EBF928460421FEF7E7F928460821FEF79E
:103A5000E3F928460C21FEF7DFF940F2FC47C2F2F9
:103A6000000738460421FEF7D7F938460C21FEF747
:103A7000D3F940F28C54C2F2000420460421FEF730
:103A8000CBF920460C21FEF7C7F940F2D456C2F21A
:103A9000000630460021FEF7BFF930460421FEF74C
:103AA000BBF938460821FEF7B7F948460C21FEF766
:103AB000B3F948460821FEF7AFF940F22446C2F2B6
:103AC000000630460021FEF7A7F938460021FEF730
:103AD000A3F920460021FEF79FF930460421FEF7A6
:103AE0009BF9D8F80000782101648221AA22816321
:103AF0004263C822C263286840F28814C163BE21B1
:103B00000164AF21C2F200044163826320460021B8
:103B1000FCF798FC20461021FCF794FC204600217D
:103B200000220023FCF77AFC20461021002200230B
:103B3000FCF774FC0020C4F202001021002201B046
:103B4000BDE8F043FCF7BABF000000000000000031
:103B5000074B19680868B0E8F04F80F30988BFF395
:103B60006F8F4FF0000080F31188704700BF00BFD7
:103B70002800002040F2606040F63841C2F20000A8
:103B8000C2F200017F22FEF7DDF9FFF733FF4FF4A9
:103B90007A7000F0DFFF40F20614C2F2000400BFAA
:103BA000012000F0D7FF20780128F9D100F08CFC2B
:103BB0000220207000F0F4FE012000F0CBFFFBE7B4
:103BC0004FF47A7000F0C6FF40F20614C2F200040F
:103BD000012000F0BFFF20780228F9D100F0AAFDF3
:103BE00001F0A0FE012000F0B5FFFBE7A0B040F21D
:103BF000180640F2061840F20515C2F200066C469F
:103C00004FF0000B0FF2500AC2F200084FF001090A
:103C1000C2F2000512A702E0012000F09BFF30680D
:103C2000214600220A2300F0D7FF40B92046514622
:103C30000522FCF71AFB002808BF88F800902878B6
:103C40000138C0B20928E7D857F8200003F002FA7B
:103C500085F800B0E0E700BF737461727400000083
:103C6000BB710008CD710008DD710008EC7100081F
:103C7000FE7100080E720008207200088C710008A6
:103C80009B710008AD71000880B54EF21000CEF2B5
:103C90000000006802F0F4FF012808BF80BDBDE805
:103CA000804002F05DBB0000B0B592B0002443F646
:103CB0004000CDE90A44CDE908440594CDE9034428
:103CC000CDE901440094C4F202000168022541F0EC
:103CD00080510160006800F080500090009847F229
:103CE00000000094C4F20000016841F480410160CA
:103CF0000068A82100F48040009000980120069000
:103D00004FF4803007904FF480000D9004200E9007
:103D1000119006A80C95CDE90F15FDF703F928B110
:103D2000EFF3108072B600BFFEE700BF0F20CDE9B1
:103D300001054FF4A05004904FF48050059001A865
:103D400005210394FCF7C0FF20B1EFF3108072B699
:103D5000FEE700BF12B0B0BD4EF68850CEF20000B4
:103D6000016841F4700101607047000080B540F2C5
:103D7000DC30C2F20000FDF719FD40F2D450C2F26F
:103D80000000BDE88040FDF711BD000040F2445046
:103D9000C2F20000FDF70ABD10B540F6FF3E036811
:103DA000C4F2000E40F2004C7045C4F2010C27DC56
:103DB000B0F1804F31D040F20042C4F20002904294
:103DC0002BD040F60002C4F20002904225D041F60A
:103DD000FF72C4F20002904229DC70453CDCB0F175
:103DE000804F5FD040F20042C4F20002904259D0AE
:103DF00040F60002C4F20002904253D056E000BFE9
:103E000040F60042C4F20002904206D0604504D061
:103E10000022C4F201029042D9D14A6823F0700313
:103E2000134341F6FF72C4F200029042D5DD43F61F
:103E3000FF72C4F20102904222DC42F20002C4F29C
:103E4000000290422ED00022C4F20102904229D0FA
:103E5000604527D02AE000BF40F60042C4F20002CD
:103E600090421FD041F60002C4F20002904219D0E5
:103E700041F60042C4F20002904213D016E000BFA7
:103E800044F20002C4F2010290420BD044F6000258
:103E9000C4F20102904205D044F20042C4F2010291
:103EA000904203D1CA6823F44073134323F0800285
:103EB0004B69D1F800E08C681A430260C46240F498
:103EC0008062C0F828E0624504BF096901630121EE
:103ED000416110BD806B0021C185C184FEF75ABAD3
:103EE000806B01684A6990F83D30212B2DD112F08A
:103EF00080022AD00021C184016851E8031F0268B2
:103F000021F0C00142E80313DBB1016851E8031F4F
:103F1000026821F0C00142E8031393B1016851E83F
:103F2000031F026821F0C00142E803134BB101688E
:103F300051E8031F026821F0C00142E80313002B7F
:103F4000DAD1202180F83D100168496990F83E20BF
:103F5000222A40F07D8011F0400179D00021C185F6
:103F6000016851E8031F026821F4907142E80313CD
:103F7000BBB3016851E8031F026821F4907142E865
:103F8000031373B3016851E8031F026821F49071B1
:103F900042E803132BB3016851E8031F026821F4C0
:103FA000907142E80313002BDAD11AE0016851E85E
:103FB000051F026821F0010142E80513DBB1016829
:103FC00051E8051F026821F0010142E8051393B191
:103FD000016851E8051F026821F0010142E805135C
:103FE0004BB1016851E8051F026821F0010142E868
:103FF0000513002BDAD1016B012924D1016851E8A6
:10400000031F026821F0100142E80313DBB10168CD
:1040100051E8031F026821F0100142E8031393B135
:10402000016851E8031F026821F0100142E8031300
:104030004BB1016851E8031F026821F0100142E80A
:104040000313002BDAD1202180F83E1000210163F8
:10405000016C41F010010164FEF79CB90168806BAE
:104060000968C90500F19F800021C185016851E8F8
:10407000031F026821F4807142E80313E3B1016871
:1040800051E8031F026821F4807142E803139BB1D9
:10409000016851E8031F026821F4807142E80313AC
:1040A00053B1016851E8031F026821F4807142E8AE
:1040B0000313002BDAD100BF016851E8051F026825
:1040C00021F0010142E80513BBB3016851E8051F67
:1040D000026821F0010142E8051373B3016851E859
:1040E000051F026821F0010142E805132BB30168A6
:1040F00051E8051F026821F0010142E80513002B79
:10410000DAD11AE0016851E8051F026821F0400188
:1041100042E80513DBB1016851E8051F026821F090
:10412000400142E8051393B1016851E8051F026898
:1041300021F0400142E805134BB1016851E8051F29
:10414000026821F0400142E80513002BDAD120215A
:1041500080F83E10016B012925D100BF016851E8AC
:10416000031F026821F0100142E80313DBB101686C
:1041700051E8031F026821F0100142E8031393B1D4
:10418000016851E8031F026821F0100142E803139F
:104190004BB1016851E8031F026821F0100142E8A9
:1041A0000313002BDAD1016B012918BFFEF732BDD2
:1041B000818DFDF7B9BF0000806B016B012918BF2D
:1041C000FEF72ABD818D4908FDF7AEBF81B090F89A
:1041D0003E10222921D183680246B3F5805F09D1C0
:1041E00052F8281F52F8183C002B63D003685B6814
:1041F0000AE000BF52F8281F13B90369002BF5D05D
:1042000003685B6803F07F030B7011680131116074
:10421000C18D01390A04C18502D001B0704700BFC9
:104220000168CA6822F02002CA60CA6822F480725B
:10423000CA604A6922F001024A61202180F83E10DA
:10424000016B01293ED10021016300BF016851E8E3
:10425000031F026821F0100142E80313DBB101687B
:1042600051E8031F026821F0100142E8031393B1E3
:10427000016851E8031F026821F0100142E80313AE
:104280004BB1016851E8031F026821F0100142E8B8
:104290000313002BDAD101680A68D20606D5002282
:1042A00000920A680092496800910099818D01B0DE
:1042B000FDF73ABF026852686FF35F2221F8022BC4
:1042C0008162A5E701B0FEF7A5BC000010B5044669
:1042D0000068D4E902C22369016921F44051114305
:1042E0000161626943EA0C01E3691143C268194341
:1042F00049F20C639A431143C1604169A26921F4F8
:10430000407141F20043114340F48062C4F2010362
:104310009A42416102D1FCF7BBFD01E0FCF7A4FD2C
:10432000E16963681922B1F5004FA0FB020123D1B6
:104330005A00DB0FFBF744FF48F21F51C5F2EB11A7
:10434000A0FB01235A094FF69C73C0F6FF7303F1DB
:10435000805302FB0300322303EBC000A0FB0101EA
:104360004FF4F87000EA111000EB0210C1F3421193
:1043700008442168886010BD9A009B0FFBF720FF5E
:1043800048F21F51C5F2EB11A0FB01235A094FF669
:104390009C73C0F6FF7302FB0300322303EB001093
:1043A000A0FB0101F02000EA511000EB0210C1F364
:1043B000431108442168886010BD000040F21C6071
:1043C000C2F20000FDF7E8BF40F26060C2F20000F8
:1043D000FDF7E2BF40F2A460C2F20000FDF7DCBFCF
:1043E000FEE700002DE9F04F81B040F2B444C2F284
:1043F000000420688C26B42540F2041740F2100314
:10440000C6630564C2F20007C2F2000339781A7865
:10441000914245D00020C4F2020040F28C5800F5D1
:104420004065C2F200084FF032094FF0000A4FF029
:10443000010B00BFFA782846402182F001061C4695
:10444000FCF73CFB0020C4F202004FF480713246BE
:10445000FCF734FBD8F80000C0F83890C0F8409062
:104460004FF4AF5000F076FBD8F80000C0F838A049
:10447000C0F840A0F87839782BEA0000F870481CA2
:104480003870FA2000F066FB38782178234688429D
:10449000D0D140F2B444C2F200042068B4258C2686
:1044A000002139705021C163F021016440F2EE20F7
:1044B00000F050FB216840F2EE20CE630D6401B0A5
:1044C000BDE8F04F00F046BB2DE9F04F81B040F25F
:1044D000DC34C2F200042068A0210164D2214163CF
:1044E0004FF47A7000F036FB206878210164AA212D
:1044F00041634FF47A7000F02DFB20685A218163EC
:10450000A521C1634FF47A7000F024FB206882215A
:104510008163C821C1634FF47A7000F01BFB40F245
:10452000FC46C2F20006306832248463046440F220
:10453000A46000F00FFB30680027876307644FF426
:104540007A7000F007FB40F2041BC2F2000B9BF8EC
:10455000020040F2EB4100EB800004388BF80100D0
:10456000306840F224458162C2F2000528684FF0AD
:104570006408C0F838804FF4AF6000F0EBFA2868A8
:1045800087634FF47A7000F0E5FA3068846304645E
:104590004FF47A7000F0DEFA306840F2B44A876374
:1045A0000764C2F2000ADAF800104FF0F009C1F80F
:1045B00034908463046440F24C4000F0CBFA3068DD
:1045C000AF2187630764DAF8000041634FF4FA70A3
:1045D00000F0C0FA30688463046440F6A66000F01E
:1045E000B9FA306887630764DAF80000C0F83490DD
:1045F0004FF4FA7000F0AEFA3068846304644FF44C
:10460000966000F0A7FA3068876307649BF80200A1
:1046100000EB800003388BF80100FFF7E3FE9BF806
:104620000200316800EB800002388BF8010040F690
:10463000CA008C630C6400F08DFA306840F28C552F
:10464000876307649BF80200C2F2000500EB80005C
:10465000013829688BF801004FF47A70C1F8348072
:1046600000F078FA286847634FF4FA7000F072FAA5
:1046700030688463046440F24C4000F06BFA3068A8
:1046800040F2004887630764DAF80010C4F20208B9
:10469000912208F540658A638463046428464FF4D8
:1046A00000410122FCF70AFA40464FF40051002273
:1046B000FCF704FA40F2D459C2F20009D9F800001C
:1046C0004463846340F2B63000F044FA3068C82195
:1046D00087630764D9F8000047638763DAF800004E
:1046E000816340F2262000F035FA28464FF400415D
:1046F0000122FCF7E3F940464FF400510022FCF799
:10470000DDF9D9F80000AF21446384633068846325
:104710000464DAF80000416341F2941000F01AFAE0
:10472000306887630764D9F800004763876301B086
:10473000BDE8F08F2DE9F04F81B040F2DC34C2F2D9
:1047400000042068A0210164D22141634FF47A70F3
:1047500000F000FA206878210164AA2141634FF437
:104760007A7000F0F7F920685A218163A521C163AE
:104770004FF47A7000F0EEF9206882218163C8213D
:10478000C1634FF47A7000F0E5F940F2FC46C2F2E2
:104790000006306832248463046440F6C41000F0DC
:1047A000D9F930680027876307644FF47A7000F006
:1047B000D1F940F2041BC2F2000B9BF8020040F258
:1047C000EB4100EB800004388BF80100306840F2C8
:1047D00024458162C2F2000528684FF06408C0F8E1
:1047E00038804FF4FA6000F0B5F9286887634FF419
:1047F0007A7000F0AFF93068846304644FF47A7023
:1048000000F0A8F9306840F2B44A87630764C2F246
:10481000000ADAF800104FF0F009C1F83490846310
:1048200004644FF4966000F095F93068AF21876317
:104830000764DAF8000041634FF4FA7000F08AF977
:1048400030688463046440F6A66000F083F9306841
:1048500087630764DAF80000C0F834904FF4FA7008
:1048600000F078F93068846304644FF4966000F0D7
:1048700071F93068876307649BF8020000EB8000E1
:1048800003388BF80100FFF7ADFD9BF8020031689B
:1048900000EB800002388BF8010040F6CA008C6300
:1048A0000C6400F057F9306840F28C558763076458
:1048B0009BF80200C2F2000500EB80000138296875
:1048C0008BF801004FF49660C1F8348000F042F993
:1048D000286847634FF4FA7000F03CF9306884634D
:1048E000046440F24C4000F035F9306840F2004872
:1048F00087630764DAF80010C4F20208912208F511
:1049000040658A638463046428464FF400410122B1
:10491000FCF7D4F840464FF400510022FCF7CEF8E3
:1049200040F2D459C2F20009D9F80000446384630C
:1049300040F2B63000F00EF93068C8218763076492
:10494000D9F8000047638763DAF80000816340F21A
:10495000262000F0FFF828464FF400410122FCF722
:10496000ADF840464FF400510022FCF7A7F8D9F803
:104970000000AF2144638463306884630464DAF820
:104980000000416341F2941000F0E4F8306887635E
:104990000764D9F800004763876301B0BDE8F08F72
:1049A0002DE9F04F81B040F2FC4BC2F2000BDBF876
:1049B00000006421C16340F26C41C2F2000108684A
:1049C0000024046442F234100D4600F0C3F8DBF812
:1049D000000040F60008C4632868C4F2020808F525
:1049E0000065046428464FF400410022FCF766F895
:1049F000A8F5806630464FF400510122FCF75EF8BE
:104A000040F2D457C2F2000738684FF03209C0F8BC
:104A10003490C0F838904FF4FA604FF4FA6A00F01E
:104A200099F8DBF800004FF40041C46340F26C4099
:104A3000C2F2000000680022C0F840A02846FCF73F
:104A40003DF830464FF400510122FCF737F8386842
:104A5000C0F83490C0F8389042F2341000F07AF880
:104A6000DBF8000040F26C41C463C2F20001096847
:104A700005220C6439684C638C6340F20411C2F265
:104A800000014A706421416340464FF48071002266
:104A9000FCF714F84FF4FA5000F05CF8DBF8000073
:104AA0004FF48071446340460022FCF707F84FF44E
:104AB000FA7000F04FF8DBF800004FF480714463A7
:104AC00040460122FBF7FAFF42F2341000F042F8B0
:104AD000DBF8003040464FF4807100225C6301B087
:104AE000BDE8F04FFBF7EABF80B582B0019040F21D
:104AF0006060C2F2000001A901224FF6FF73FEF7C9
:104B00008DF8019802B080BDFBF7F2FFFFF7CCF8FB
:104B1000FEF77CFAFEF7F8F9FEF7F8FEFEF7D8FE8E
:104B2000FEF790FBFEF73CFCFEF7B6FCFEF740FDFF
:104B3000FEF7C8FDFEF768FEFEF720FBFEF704FF58
:104B4000FEF7B4F900F016F8FEF72CFA00F026F89C
:104B5000FEE70000EFF3058100291CBF6FF00500A0
:104B60007047002804BF0020704780B501F08EF91F
:104B7000002080BDEFF3058000281CBF6FF005000A
:104B8000704740F23010C2F200000168002911BFE6
:104B90004FF0FF30012101600020704710B5EFF3A6
:104BA000058000281CBF6FF0050010BD40F23010DA
:104BB000C2F20000016801291CBF4FF0FF3010BD98
:104BC0004EF61F51CEF2000100240C70022101604C
:104BD00001F026FA204610BD10B582B01C46B0FA8E
:104BE00080F3B1FA81F25B095209EFF3058CBCF155
:104BF000000F42EA030219D0002C18BF01242243FF
:104C000015D10022019201AA01F00AFF01281BD14F
:104C10000198B0B14EF60450CEF200004FF0805132
:104C20000160BFF34F8FBFF36F8F0AE022B16FF0C7
:104C3000030002B010BD00BF224601F01FFE012894
:104C400006D1002002B010BD6FF0020002B010BD0E
:104C50006FF00100002C08BF6FF0020002B010BD21
:104C600070B582B0154600294FF00004EFF30582BD
:104C700018BF002802D1204602B070BD002AFAD128
:104C8000B5B1D5E902321BB3502A26D32A6922B323
:104C90006E6901FB00F4A6424FF00004EBD30094D0
:104CA00001F0BAFB06460028E5D02C6807E000BFFB
:104CB0000022002401F06CFB06460028DBD03046C1
:104CC000214601F061F83446204602B070BD00BFB5
:104CD0001AB92A690AB96A6922B10024204602B0C9
:104CE00070BD00BF0022002401F052FB06460028E0
:104CF000DBD1C0E7B0B582B01C46B0FA80F3B1FAA0
:104D000081F5EFF305825B096D09002A43EA05028C
:104D10000AD0002C18BF012422430BD06FF00305EA
:104D2000284602B0B0BD00BFF2B16FF003052846BF
:104D300002B0B0BD0022019201AA002301F0F2FCF2
:104D4000012821D1019828B34EF60450CEF200007C
:104D50004FF080510160BFF34F8FBFF36F8F00257D
:104D6000284602B0B0BD00BF22460023002501F056
:104D7000C3FB0128D4D06FF00105002C08BF6FF0F1
:104D80000205284602B0B0BD6FF00205284602B009
:104D9000B0BD00BF0025284602B0B0BD2DE9F041EE
:104DA00084B08E4600240394EFF3058150B149B9D5
:104DB0004FF0000452B19369002B08BF1823382B21
:104DC00016D90024204604B0BDE8F08180251823C0
:104DD000002103AF0093AAB27346019701F0E4FEED
:104DE0000399012808BF0C46204604B0BDE8F081B5
:104DF0001179C90724D15769D2E902864FEA970C85
:104E00001168002F654608BF8025B8F1000F13D048
:104E10005C2E15D312690024002A18BF002FD1D0B0
:104E2000CDE9003262467346CDF8088001F0ECFE11
:104E300004B0BDE8F08100BF16B91269002AC8D0DD
:104E40000024204604B0BDE8F08100002DE9F041C7
:104E5000044600F0A9FE40F22806C2F20006F068FF
:104E600040F2D8750130F0603068C2F2000558B1E8
:104E70003069002840F007813068E16AC06A8842E2
:104E800098BF3460FFE000BF3460F068012840F054
:104E9000FA80284600F02EFE05F1140000F02AFEEC
:104EA00005F1280000F026FE05F13C0000F022FE8E
:104EB00005F1500000F01EFE05F1640000F01AFE3E
:104EC00005F1780000F016FE05F18C0000F012FEEE
:104ED00005F1A00000F00EFE05F1B40000F00AFE9E
:104EE00005F1C80000F006FE05F1DC0000F002FE4E
:104EF00005F1F00000F0FEFD05F5827000F0FAFD0E
:104F000005F58C7000F0F6FD05F5967000F0F2FDE9
:104F100005F5A07000F0EEFD05F5AA7000F0EAFDC1
:104F200005F5B47000F0E6FD05F5BE7000F0E2FD99
:104F300005F5C87000F0DEFD05F5D27000F0DAFD71
:104F400005F5DC7000F0D6FD05F5E67000F0D2FD49
:104F500005F5F07000F0CEFD05F5FA7000F0CAFD21
:104F600005F5027000F0C6FD05F5077000F0C2FD02
:104F700005F50C7000F0BEFD05F5117000F0BAFDEE
:104F800005F5167000F0B6FD05F51B7000F0B2FDDA
:104F900005F5207000F0AEFD05F5257000F0AAFDC6
:104FA00005F52A7000F0A6FD05F52F7000F0A2FDB2
:104FB00005F5347000F09EFD05F5397000F09AFD9E
:104FC00005F53E7000F096FD05F5437000F092FD8A
:104FD00005F5487000F08EFD05F54D7000F08AFD76
:104FE00005F5527000F086FD05F5577000F082FD62
:104FF00005F55C7000F07EFD05F5617000F07AFD4E
:1050000005F5667000F076FD05F56B7000F072FD39
:1050100005F5707000F06EFD05F5757000F06AFD25
:1050200005F57A7000F066FD05F57F7000F062FD11
:1050300005F5826000F05EFD05F2244000F05AFDA7
:1050400005F5876000F056FD05F24C4000F052FD7A
:1050500040F20818C2F20008404600F04BFD08F18B
:105060001407384600F046FD06F1640000F042FDEA
:1050700006F13C0000F03EFD06F1500000F03AFD64
:10508000C6F81C8037627068716A421CE06A726000
:105090008842626488BF706200EB800005EB80008C
:1050A000211D00F069FD00F0A3FD306988B1306872
:1050B000E16AC06A884228BFBDE8F0814EF604501C
:1050C000CEF200004FF080510160BFF34F8FBFF36D
:1050D0006F8FBDE8F081000040F2280540F2D876DD
:1050E0004EF60458C2F20005C2F20006CEF20008E5
:1050F0004FF0805703E000BF204600F091FDA86804
:10510000D0B100F051FDA86CC468201D00F0C4FCB3
:10511000E8680138E860A8680138A86000F068FD18
:1051200094F859000228EAD00128E5D070B9206B24
:1051300000F076FDE0E700BF30680228DFD3C8F852
:105140000070BFF34F8FBFF36F8FD8E74FF0500061
:1051500080F31188BFF36F8FBFF34F8FFEE700001E
:105160002DE9F0470A9C8246206B16460F46DDE982
:1051700008599100A5229846FBF765F8206B002F8F
:1051800000EB8600A0F1040020F0070656D0387826
:1051900084F83400387800284BD0787884F83500CB
:1051A0007878002845D0B87884F83600B878002898
:1051B0003FD0F87884F83700F878D0B3387984F89D
:1051C00038003879A8B3787984F83900787980B3D1
:1051D000B87984F83A00B87958B3F87984F83B0084
:1051E000F87930B3387A84F83C00387A08B3787AA2
:1051F00084F83D00787AE0B1B87A84F83E00B87A55
:10520000B8B1F87A84F83F00F87A90B1387B84F826
:105210004000387B68B1787B84F84100787B40B1EE
:10522000B87B84F84200B87B00281CBFF87B84F868
:105230004300002084F8430003E000BF002084F80E
:1052400034000027201D372D28BF3725E562C4E92B
:10525000135700F05BFC04F1180000F057FCC5F197
:105260003800A06130465146424624616462676559
:1052700084F8587000F042FBB9F1000F206018BFAD
:10528000C9F80040BDE8F08708480068006880F36E
:1052900008884FF0000080F3148862B661B6BFF34F
:1052A0004F8FBFF36F8F00DF00BF000008ED00E0FD
:1052B00081B00020009040F20C00C2F200000068B3
:1052C0004FF0500181F31188BFF36F8FBFF34F8F01
:1052D000013007D0FEE700BF009830B9009820B930
:1052E000009810B900980028F6D001B0704700006F
:1052F00088B040F2A00AC2F2000A0DF11009EB4694
:10530000DAF8080005681DB1C068046801E000BF54
:10531000002400F0FDFE01F0C3FCDAF81010064690
:10532000884220D3002DCAF8106051D0A6424FD336
:1053300001F0BEFDDAF80800C068C7683D1D2846C8
:1053400000F0AAFB97F82800410745D400F0FE00C2
:1053500087F8280084E000BF6860DAF80800394662
:105360002D6100F0D7FBDAF80800016831B3C0689E
:10537000C56804682F1D384600F08EFB296A284650
:10538000884795F828004007EDD5A8692044A04239
:10539000E2D8DAF80000002800F04881002004A9D3
:1053A00031C101F06DFCDAF800004946002200230B
:1053B00001F0A2F80028D6D138E100BFDAF80C10CD
:1053C000CAF81060CAE9021001F072FD1AE100BFCC
:1053D00065B1002210E000BFB8693F610119B14218
:1053E00079601FD90AF1080021E000BFDAF80C004B
:1053F0000068B0FA80F04209DAF80000A11B00F062
:105400001BFD01F055FD002840F0FC804EF60450D5
:10541000CEF200004FF080510160BFF34F8FBFF319
:105420006F8FEFE0311B814206D20AF10C00006859
:10543000294600F06FFB13E0DAF80000002800F0C6
:105440001381002004A991C101F01AFCDAF80000D0
:1054500049460022002301F04FF8002800F00481A3
:10546000396A38468847CDE00098B0F1FF3F07DC45
:10547000DDE90120039990470098002800F1C280DF
:10548000029E706910B1301D00F006FB01F008FCAF
:10549000DAF81010074688420DD30098CAF8107049
:1054A00009283FD9AEE000BF6860DAF8080021465D
:1054B0002D6100F02FFBDAF80800016841B3C068E5
:1054C000C568D0F800802C1D204600F0E5FA296A56
:1054D0002846884795F828004007ECD5A86940443D
:1054E0004045E1D8DAF80000002800F0958000205F
:1054F000CDE90408069501F0C3FBDAF8000049463F
:105500000022002300F0F8FF0028D4D184E000BF7F
:10551000DAF80C10CAE902100098CAF810700928CD
:1055200000F27080DFE800F00606064448620606D6
:10553000444800BF96F82800019A40F00101B06984
:1055400086F828108318314641F8043FBB42366183
:1055500006D997420AF1080007D293420AD204E022
:10556000BA1A824206D20AF10C00006800F0D2FAA0
:1055700048E000BF316A3046884796F82800400767
:1055800040D5DAF8000000285AD00198B169069693
:1055900008440021CDE9041001F072FBDAF80000A4
:1055A00049460022002300F0A7FF58BB48E000BF97
:1055B00096F8280022E000BF96F8280040F001018C
:1055C000019886F828100028B06143D0384431464D
:1055D0000AF10C0241F8040F3661B84288BF0AF1A3
:1055E0000802106800F096FA0CE000BF96F8280058
:1055F000810703D4304600F013FB03E000F0FE0007
:1056000086F82800DAF800005946002201F036F941
:1056100000287FF429AF73E64FF0500080F3118823
:10562000BFF36F8FBFF34F8FFEE700BF4FF0500007
:1056300080F31188BFF36F8FBFF34F8FFEE700BF7A
:105640004FF0500080F31188BFF36F8FBFF34F8F7F
:10565000FEE700BF4FF0500080F31188BFF36F8F5B
:10566000BFF34F8FFEE700BF4FF0500080F311886B
:10567000BFF36F8FBFF34F8FFEE70000F0B581B02F
:10568000044600F091FA94F94560012E0FDB04F115
:10569000240500BF286850B1284601F0CFFB002840
:1056A00018BF00F03DFCF0B2013E0128F2D8FF2601
:1056B00084F8456000F09CFA00F076FA94F94470A2
:1056C000012F0EDB04F11005286850B1284601F0C7
:1056D000B5FB002818BF00F023FCF8B2013F0128F9
:1056E000F2D884F8446001B0BDE8F04000F080BA20
:1056F00070B5044600F00CFD40F2DC0CC2F2000C68
:10570000DCF8040050B19CF80000002818BF4FF0EE
:1057100000404FF0000574BB8DE000BF40F6B8407C
:10572000C2F20000C21D22F0070210F00701A0EB38
:10573000020318BF104600224FF47055CCE9060250
:10574000002918BF03F57055411921F00701A1F197
:105750000803CCF8043041E90222191AC0E90031EB
:1057600001208CF800004FF00040CCE90211002C21
:105770004FF000055FD020405DD124F0070000F11C
:105780001002600708BF04F10802002A4FF000056C
:1057900051D0DCF8080082424DD8604650F818EF2E
:1057A000DEF8045095422CD2DEF80010C1B17446E8
:1057B0004D68954218D20B68B3B15D68954217D217
:1057C0001868A8B14568954216D20468A4B1656806
:1057D000954215D22168A6460029E9D111E000BF03
:1057E0000CF118000DE000BF8E46204609E000BF16
:1057F0009E46084605E000BF8646184601E000BF09
:10580000A646DCF804108E4514D00168DEF800408E
:10581000AB1A112B04604DD30EEB0205680719D0AB
:105820004FF0500080F31188BFF36F8FBFF34F8F9D
:10583000FEE700BF002501F03BFB68075BD04FF09F
:10584000500080F31188BFF36F8FBFF34F8F00BFFD
:10585000FEE700BF0CF118006B60CEF8042000BF1B
:105860000368AB420AD21868A8420BD20368AB4265
:1058700004D218681A46A842F2D304E00246184639
:1058800001E000BF1A4653686C68D618AE4202D1D8
:105890001C44154654602B19834207D1DCF80430B0
:1058A000984203D0D0E9000323446B60AA422860E9
:1058B00018BF156001F10805DEF80400DCE90212EA
:1058C000091A9142CCF8081038BFCCF80C109CF89B
:1058D0000010002918BF40F00040CEF80400DCF8AA
:1058E000100000210130CEF80010CCF8100001F0BB
:1058F000DFFA6807A3D1284670BD0000034645F2D1
:10590000B120C0F600004FF0807C21F0010103E9D6
:1059100003106FF0020043F8240CA3F1440043F895
:10592000202C70472DE9F04F81B040F2FC47C2F2C5
:1059300000073868642140F26C4AC163C2F2000A71
:10594000DAF800000024046442F23410FFF702F990
:1059500038680026C463DAF80000C4F2020606F5CF
:105960008055046428464FF400410022FBF7A6F856
:1059700006F5806630464FF400510122FBF79EF891
:1059800040F2D45BC2F2000BDBF800004FF03209AA
:10599000C0F83490C0F838904FF4FA604FF4FA68C9
:1059A000FFF7D8F838684FF40041C463DAF8000014
:1059B0000022C0F840802846FBF780F830464FF4BC
:1059C00000510122FBF77AF8DBF80000C0F83490B0
:1059D000C0F8389042F23410FFF7BCF8386840F253
:1059E0002448C463DAF80000C2F200080464DBF85B
:1059F00000104C638C63C463D8F8000064214163D9
:105A00004FF4FA50FFF7A6F8DAF800000027C46355
:105A1000D8F8000040F20416C4F202074463C2F250
:105A200000060A253846022100227570FBF746F869
:105A3000DAF80000C0F8349043F2B060FFF78AF85B
:105A4000DAF80000446342F210707570FFF782F8D4
:105A5000384602210122FBF731F8DAF800004FF452
:105A6000FA61C0F83490C163D8F8000044634FF481
:105A7000FA50FFF76FF8DAF80000C463D8F80000B6
:105A8000446341F27070FFF765F8DAF80000446390
:105A900001B0BDE8F08F0000D0E9013201699A60E1
:105AA000D1F804C082688445536008BF4A60002270
:105AB00002610868013808600868704744F6BC2332
:105AC000C2F20003036044F6BC00C2F200000860AA
:105AD000802010607047000044F61873C2F2000383
